:100000000C9424010C9441010C9441010C94410185
:100010000C9441010C9441010C9441010C94410158
:100020000C9441010C9441010C9441010C94D301B6
:100030000C9441010C9441010C9441010C94410138
:100040000C9441010C9441010C9441010C94410128
:100050000C9441010C9441010C9441010C94410118
:100060000C9441010C944101000000000000005F6D
:1000700000000007000700147F147F14242A7F2A41
:10008000122313086462364955225000050300000C
:10009000001C2241000041221C0014083E081408E4
:1000A000083E0808005030000008080808080060F2
:1000B00060000020100804023E5149453E00427F86
:1000C000400042615149462141454B311814127F8D
:1000D0001027454545393C4A494930017109050316
:1000E0003649494936064949291E0036360000007E
:1000F0005636000008142241001414141414004150
:100100002214080201510906324979413E7E11113B
:10011000117E7F494949363E414141227F4141227A
:100120001C7F494949417F090909013E4149497AF2
:100130007F0808087F00417F41002040413F017F48
:10014000081422417F404040407F020C027F7F0420
:1001500008107F3E4141413E7F090909063E415159
:10016000215E7F09192946464949493101017F012C
:10017000013F4040403F1F2040201F3F4038403F4C
:100180006314081463070870080761514945430068
:100190007F41410002040810200041417F00040219
:1001A0000102044040404040000102040020545439
:1001B00054787F48444438384444442038444448C0
:1001C0007F3854545418087E0901020C5252523E92
:1001D0007F0804047800447D40002040443D007FB7
:1001E0001028440000417F40007C041804787C08FB
:1001F00004047838444444387C1414140808141453
:10020000187C7C080404084854545420043F44409B
:10021000203C4040207C1C2040201C3C4030403C86
:1002200044281028440C5050503C4464544C440022
:100230000836410000007F00000041360800100829
:10024000081008000000000011241FBECFEFD8E006
:10025000DEBFCDBF11E0A0E0B1E0EAEFF7E002C001
:1002600005900D92AC36B107D9F723E0ACE6B1E0CA
:1002700001C01D92A33BB207E1F70E94AC030C94AE
:10028000FB030C940000CF930E94A80261E08CE372
:1002900091E00E9482038091700190917101C5E00C
:1002A000C89FB001C99F700D112460507F4F83E03B
:1002B0000E9478038091720190917301C89FB001F0
:1002C000C99F700D112460507F4F84E00E94780315
:1002D0008091760190917701C89FB001C99F700D00
:1002E000112460507F4F82E00E9478038091740156
:1002F00090917501C89FB001C99F700D1124605085
:100300007F4F81E00E94780380916E0190916F0190
:10031000C89FB001C99F700D112460507F4F85E0C8
:100320000E94780380916C0190916D01C89FB0018B
:10033000C99F700D112460507F4F86E00E947803A2
:1003400061E08DE491E00E94820368E18AE20E940C
:1003500092038091780161E0811107C087E591E007
:100360000E948203CF910C94970383E691E0F8CF2B
:1003700010928000E1E8F0E0108210928500109267
:1003800084008081886080838081856080838BE9A0
:1003900090E09093890080938800EFE6F0E0808100
:1003A0008260808308951F921FB61F9211248F933D
:1003B0009F93809178018823E1F08091760190915C
:1003C0007701019690937701809376018A309105A9
:1003D00084F0809174019091750101968A309105A5
:1003E00074F49093750180937401109277011092C8
:1003F00076019F918F911F901FBE1F9018951092AC
:1004000075011092740180917201909173010196AF
:1004100090937301809372018A30910534F3809137
:100420007001909171010196863091054CF4909382
:100430007101809370011092730110927201D5CFF7
:10044000109271011092700180916E0190916F0174
:10045000019690936F0180936E018A3091055CF351
:1004600080916C0190916D0101968A3091054CF458
:1004700090936D0180936C0110926F0110926E0148
:10048000DACF10926D0110926C01F6CF2998662395
:10049000A9F02B9A27E030E090E0AC01022E02C0D8
:1004A000559547950A94E2F740FF0AC02C9A2D9A79
:1004B0002D982150310988F7299A08952B98EACF71
:1004C0002C98F5CF60E00C944602CF93DF93219AED
:1004D000229A239A249A259A2A9A299A8FE39CE9A8
:1004E0000197F1F700C000002A989FEF2AE683E009
:1004F000915020408040E1F700C000002A9A2998DE
:1005000081E20E94620283E10E94620286E00E9410
:10051000620282EC0E94620280E20E94620289E032
:100520000E94620280E80E94620280E40E946202ED
:10053000C8EFD1E061E080E00E9446022197D1F748
:1005400088E00E9462028CE0DF91CF910C946202FD
:1005500080E80E94620280E40E9462021092B1036D
:100560001092B203E9EBF1E088EF91E0DF019C012A
:100570001D9221503040E1F70895811103C084E2BB
:100580000C94620280E2FCCF962F969596959695F4
:10059000E82FF0E084E5989FE00DF11D1124E75469
:1005A000FE4F2081677081E090E001C0880F6A955E
:1005B000EAF7442319F0282B2083089580952823F7
:1005C000FBCF8F929F92AF92BF92DF92EF92FF92FA
:1005D0000F931F93CF93DF9300D000D00F92CDB72E
:1005E000DEB7E82FF62E80320CF44DC0E05285E0E5
:1005F000E802B001112468597F4F45E050E0CE0178
:1006000001960E94F2038E010F5F1F4F95E0F99E45
:100610005001112487E0F89E40011124E12CEA14D6
:100620001B040CF463C08091B1038F5F9F2D990F61
:10063000990F9F0D890F8093B103843558F08091F5
:10064000B2031092B1038F5F97E0F99E800D1124E1
:100650008093B2038091B203803320F01092B103F3
:100660001092B2030F900F900F900F900F90DF91A8
:10067000CF911F910F91FF90EF90DF90BF90AF90BF
:100680009F908F900895EE0FFF0BE758FE4F00816B
:1006900011810115110509F0B9CF45E050E068E678
:1006A00070E0ADCFED0D5E0D8E2D6F2D0E94E60337
:1006B000D801A80FB11D2C9130E08D2D0E94E603CA
:1006C00002C0359527958A95E2F741E020FF40E08A
:1006D0006E2F852F0E94C402D394E091B2035091F3
:1006E000B103D8141904F4F2E39499CFD12CF5CFC7
:1006F000E82F803234F4EE0FFF0BE758FE4F718382
:10070000608308951F93CF93DF93162FEC01899197
:10071000811104C0DF91CF911F910895612F0E9434
:10072000E102F5CF8093B1036093B2030895CF93B4
:10073000DF9380E80E94620280E40E946202C9EBBB
:10074000D1E061E089910E94460283E0C13BD80775
:10075000C1F7DF91CF910895F8940E9465028AB1A4
:10076000837F8AB98BB18C608BB90E94B801789471
:10077000C1E04B9BC09378014B9B04C080917801F2
:10078000811121C04A991CC080917801811118C043
:1007900010927701109276011092750110927401F7
:1007A00010927301109272011092710110927001F7
:1007B00010926F0110926E0110926D0110926C01F7
:1007C0000E944301D6CF10927801D6CF991B79E0D1
:1007D00004C0991F961708F0961B881F7A95C9F7D1
:1007E00080950895FB01DC0102C005900D924150F7
:0A07F0005040D8F70895F894FFCFA9
:1007FA003E5149453E00427F4000426151494621EF
:10080A0041454B311814127F1027454545393C4A5A
:10081A0049493001710905033649494936064949AA
:10082A00291E1024E024103E5149453E0A0A43720B
:10083A006F6E6F6D6574726F0A0A0A0A000A0605FE
:10084A003A03043A0102000A0A73746F70530A0ADF
:0C085A000A0A000A0A6F6E0A0A0A0A0065
:00000001FF
